{
  "_format": "hh-sol-artifact-1",
  "contractName": "LoyaltyToken",
  "sourceName": "contracts/LoyaltyToken.sol",
  "abi": [
    {
      "inputs": [
        {
          "internalType": "string",
          "name": "name",
          "type": "string"
        },
        {
          "internalType": "string",
          "name": "symbol",
          "type": "string"
        }
      ],
      "stateMutability": "nonpayable",
      "type": "constructor"
    },
    {
      "anonymous": false,
      "inputs": [
        {
          "indexed": true,
          "internalType": "address",
          "name": "owner",
          "type": "address"
        },
        {
          "indexed": true,
          "internalType": "address",
          "name": "spender",
          "type": "address"
        },
        {
          "indexed": false,
          "internalType": "uint256",
          "name": "value",
          "type": "uint256"
        }
      ],
      "name": "Approval",
      "type": "event"
    },
    {
      "anonymous": false,
      "inputs": [
        {
          "indexed": true,
          "internalType": "address",
          "name": "previousOwner",
          "type": "address"
        },
        {
          "indexed": true,
          "internalType": "address",
          "name": "newOwner",
          "type": "address"
        }
      ],
      "name": "OwnershipTransferred",
      "type": "event"
    },
    {
      "anonymous": false,
      "inputs": [
        {
          "indexed": true,
          "internalType": "address",
          "name": "from",
          "type": "address"
        },
        {
          "indexed": true,
          "internalType": "address",
          "name": "to",
          "type": "address"
        },
        {
          "indexed": false,
          "internalType": "uint256",
          "name": "value",
          "type": "uint256"
        }
      ],
      "name": "Transfer",
      "type": "event"
    },
    {
      "inputs": [],
      "name": "MAX_SUPPLY",
      "outputs": [
        {
          "internalType": "uint256",
          "name": "",
          "type": "uint256"
        }
      ],
      "stateMutability": "view",
      "type": "function"
    },
    {
      "inputs": [
        {
          "internalType": "address",
          "name": "account",
          "type": "address"
        }
      ],
      "name": "addToBuyerAddresses",
      "outputs": [],
      "stateMutability": "nonpayable",
      "type": "function"
    },
    {
      "inputs": [
        {
          "internalType": "address",
          "name": "account",
          "type": "address"
        }
      ],
      "name": "addToWhitelist",
      "outputs": [],
      "stateMutability": "nonpayable",
      "type": "function"
    },
    {
      "inputs": [
        {
          "internalType": "address",
          "name": "owner",
          "type": "address"
        },
        {
          "internalType": "address",
          "name": "spender",
          "type": "address"
        }
      ],
      "name": "allowance",
      "outputs": [
        {
          "internalType": "uint256",
          "name": "",
          "type": "uint256"
        }
      ],
      "stateMutability": "view",
      "type": "function"
    },
    {
      "inputs": [
        {
          "internalType": "address",
          "name": "spender",
          "type": "address"
        },
        {
          "internalType": "uint256",
          "name": "amount",
          "type": "uint256"
        }
      ],
      "name": "approve",
      "outputs": [
        {
          "internalType": "bool",
          "name": "",
          "type": "bool"
        }
      ],
      "stateMutability": "nonpayable",
      "type": "function"
    },
    {
      "inputs": [],
      "name": "automateMinting",
      "outputs": [],
      "stateMutability": "nonpayable",
      "type": "function"
    },
    {
      "inputs": [
        {
          "internalType": "address",
          "name": "account",
          "type": "address"
        }
      ],
      "name": "balanceOf",
      "outputs": [
        {
          "internalType": "uint256",
          "name": "",
          "type": "uint256"
        }
      ],
      "stateMutability": "view",
      "type": "function"
    },
    {
      "inputs": [
        {
          "internalType": "address",
          "name": "account",
          "type": "address"
        }
      ],
      "name": "burnExpiredTokens",
      "outputs": [],
      "stateMutability": "nonpayable",
      "type": "function"
    },
    {
      "inputs": [],
      "name": "burnedTokenCount",
      "outputs": [
        {
          "internalType": "uint256",
          "name": "",
          "type": "uint256"
        }
      ],
      "stateMutability": "view",
      "type": "function"
    },
    {
      "inputs": [
        {
          "internalType": "address",
          "name": "",
          "type": "address"
        }
      ],
      "name": "buyerAddresses",
      "outputs": [
        {
          "internalType": "bool",
          "name": "",
          "type": "bool"
        }
      ],
      "stateMutability": "view",
      "type": "function"
    },
    {
      "inputs": [
        {
          "internalType": "address",
          "name": "",
          "type": "address"
        }
      ],
      "name": "buyerInfo",
      "outputs": [
        {
          "internalType": "uint256",
          "name": "lastUsageTimestamp",
          "type": "uint256"
        }
      ],
      "stateMutability": "view",
      "type": "function"
    },
    {
      "inputs": [],
      "name": "conversionRate",
      "outputs": [
        {
          "internalType": "uint256",
          "name": "",
          "type": "uint256"
        }
      ],
      "stateMutability": "view",
      "type": "function"
    },
    {
      "inputs": [],
      "name": "decayInterval",
      "outputs": [
        {
          "internalType": "uint256",
          "name": "",
          "type": "uint256"
        }
      ],
      "stateMutability": "view",
      "type": "function"
    },
    {
      "inputs": [],
      "name": "decayRate",
      "outputs": [
        {
          "internalType": "uint256",
          "name": "",
          "type": "uint256"
        }
      ],
      "stateMutability": "view",
      "type": "function"
    },
    {
      "inputs": [],
      "name": "decimals",
      "outputs": [
        {
          "internalType": "uint8",
          "name": "",
          "type": "uint8"
        }
      ],
      "stateMutability": "view",
      "type": "function"
    },
    {
      "inputs": [
        {
          "internalType": "address",
          "name": "spender",
          "type": "address"
        },
        {
          "internalType": "uint256",
          "name": "subtractedValue",
          "type": "uint256"
        }
      ],
      "name": "decreaseAllowance",
      "outputs": [
        {
          "internalType": "bool",
          "name": "",
          "type": "bool"
        }
      ],
      "stateMutability": "nonpayable",
      "type": "function"
    },
    {
      "inputs": [
        {
          "internalType": "address",
          "name": "spender",
          "type": "address"
        },
        {
          "internalType": "uint256",
          "name": "addedValue",
          "type": "uint256"
        }
      ],
      "name": "increaseAllowance",
      "outputs": [
        {
          "internalType": "bool",
          "name": "",
          "type": "bool"
        }
      ],
      "stateMutability": "nonpayable",
      "type": "function"
    },
    {
      "inputs": [
        {
          "internalType": "uint256",
          "name": "amount",
          "type": "uint256"
        }
      ],
      "name": "mintToSharedWallet",
      "outputs": [],
      "stateMutability": "nonpayable",
      "type": "function"
    },
    {
      "inputs": [],
      "name": "name",
      "outputs": [
        {
          "internalType": "string",
          "name": "",
          "type": "string"
        }
      ],
      "stateMutability": "view",
      "type": "function"
    },
    {
      "inputs": [],
      "name": "owner",
      "outputs": [
        {
          "internalType": "address",
          "name": "",
          "type": "address"
        }
      ],
      "stateMutability": "view",
      "type": "function"
    },
    {
      "inputs": [
        {
          "internalType": "uint256",
          "name": "tokensToRedeem",
          "type": "uint256"
        }
      ],
      "name": "redeemDiscount",
      "outputs": [],
      "stateMutability": "nonpayable",
      "type": "function"
    },
    {
      "inputs": [
        {
          "internalType": "address",
          "name": "account",
          "type": "address"
        }
      ],
      "name": "removeFromBuyerAddresses",
      "outputs": [],
      "stateMutability": "nonpayable",
      "type": "function"
    },
    {
      "inputs": [
        {
          "internalType": "address",
          "name": "account",
          "type": "address"
        }
      ],
      "name": "removeFromWhitelist",
      "outputs": [],
      "stateMutability": "nonpayable",
      "type": "function"
    },
    {
      "inputs": [],
      "name": "renounceOwnership",
      "outputs": [],
      "stateMutability": "nonpayable",
      "type": "function"
    },
    {
      "inputs": [
        {
          "internalType": "address",
          "name": "recipient",
          "type": "address"
        },
        {
          "internalType": "uint256",
          "name": "amount",
          "type": "uint256"
        }
      ],
      "name": "rewardBuyer",
      "outputs": [],
      "stateMutability": "nonpayable",
      "type": "function"
    },
    {
      "inputs": [
        {
          "internalType": "address",
          "name": "recipient",
          "type": "address"
        },
        {
          "internalType": "uint256",
          "name": "amount",
          "type": "uint256"
        }
      ],
      "name": "rewardBuyerWithPredefinedAmount",
      "outputs": [],
      "stateMutability": "nonpayable",
      "type": "function"
    },
    {
      "inputs": [
        {
          "internalType": "uint256",
          "name": "rate",
          "type": "uint256"
        }
      ],
      "name": "setConversionRate",
      "outputs": [],
      "stateMutability": "nonpayable",
      "type": "function"
    },
    {
      "inputs": [
        {
          "internalType": "address",
          "name": "wallet",
          "type": "address"
        }
      ],
      "name": "setSharedWallet",
      "outputs": [],
      "stateMutability": "nonpayable",
      "type": "function"
    },
    {
      "inputs": [],
      "name": "sharedWallet",
      "outputs": [
        {
          "internalType": "address",
          "name": "",
          "type": "address"
        }
      ],
      "stateMutability": "view",
      "type": "function"
    },
    {
      "inputs": [],
      "name": "symbol",
      "outputs": [
        {
          "internalType": "string",
          "name": "",
          "type": "string"
        }
      ],
      "stateMutability": "view",
      "type": "function"
    },
    {
      "inputs": [],
      "name": "totalSupply",
      "outputs": [
        {
          "internalType": "uint256",
          "name": "",
          "type": "uint256"
        }
      ],
      "stateMutability": "view",
      "type": "function"
    },
    {
      "inputs": [
        {
          "internalType": "address",
          "name": "recipient",
          "type": "address"
        },
        {
          "internalType": "uint256",
          "name": "amount",
          "type": "uint256"
        }
      ],
      "name": "transfer",
      "outputs": [
        {
          "internalType": "bool",
          "name": "",
          "type": "bool"
        }
      ],
      "stateMutability": "nonpayable",
      "type": "function"
    },
    {
      "inputs": [
        {
          "internalType": "address",
          "name": "sender",
          "type": "address"
        },
        {
          "internalType": "address",
          "name": "recipient",
          "type": "address"
        },
        {
          "internalType": "uint256",
          "name": "amount",
          "type": "uint256"
        }
      ],
      "name": "transferFrom",
      "outputs": [
        {
          "internalType": "bool",
          "name": "",
          "type": "bool"
        }
      ],
      "stateMutability": "nonpayable",
      "type": "function"
    },
    {
      "inputs": [
        {
          "internalType": "address",
          "name": "newOwner",
          "type": "address"
        }
      ],
      "name": "transferOwnership",
      "outputs": [],
      "stateMutability": "nonpayable",
      "type": "function"
    },
    {
      "inputs": [
        {
          "internalType": "address",
          "name": "",
          "type": "address"
        }
      ],
      "name": "whitelistedAddresses",
      "outputs": [
        {
          "internalType": "bool",
          "name": "",
          "type": "bool"
        }
      ],
      "stateMutability": "view",
      "type": "function"
    }
  ],
  "bytecode": "0x60806040526001600955603c600c55600a600d553480156200002057600080fd5b50604051620035ed380380620035ed8339818101604052810190620000469190620002f7565b81818160039081620000599190620005c7565b5080600490816200006b9190620005c7565b5050506200008e620000826200009660201b60201c565b6200009e60201b60201c565b5050620006ae565b600033905090565b6000600560009054906101000a900473ffffffffffffffffffffffffffffffffffffffff16905081600560006101000a81548173ffffffffffffffffffffffffffffffffffffffff021916908373ffffffffffffffffffffffffffffffffffffffff1602179055508173ffffffffffffffffffffffffffffffffffffffff168173ffffffffffffffffffffffffffffffffffffffff167f8be0079c531659141344cd1fd0a4f28419497f9722a3daafe3b4186f6b6457e060405160405180910390a35050565b6000604051905090565b600080fd5b600080fd5b600080fd5b600080fd5b6000601f19601f8301169050919050565b7f4e487b7100000000000000000000000000000000000000000000000000000000600052604160045260246000fd5b620001cd8262000182565b810181811067ffffffffffffffff82111715620001ef57620001ee62000193565b5b80604052505050565b60006200020462000164565b9050620002128282620001c2565b919050565b600067ffffffffffffffff82111562000235576200023462000193565b5b620002408262000182565b9050602081019050919050565b60005b838110156200026d57808201518184015260208101905062000250565b60008484015250505050565b6000620002906200028a8462000217565b620001f8565b905082815260208101848484011115620002af57620002ae6200017d565b5b620002bc8482856200024d565b509392505050565b600082601f830112620002dc57620002db62000178565b5b8151620002ee84826020860162000279565b91505092915050565b600080604083850312156200031157620003106200016e565b5b600083015167ffffffffffffffff81111562000332576200033162000173565b5b6200034085828601620002c4565b925050602083015167ffffffffffffffff81111562000364576200036362000173565b5b6200037285828601620002c4565b9150509250929050565b600081519050919050565b7f4e487b7100000000000000000000000000000000000000000000000000000000600052602260045260246000fd5b60006002820490506001821680620003cf57607f821691505b602082108103620003e557620003e462000387565b5b50919050565b60008190508160005260206000209050919050565b60006020601f8301049050919050565b600082821b905092915050565b6000600883026200044f7fffffffffffffffffffffffffffffffffffffffffffffffffffffffffffffffff8262000410565b6200045b868362000410565b95508019841693508086168417925050509392505050565b6000819050919050565b6000819050919050565b6000620004a8620004a26200049c8462000473565b6200047d565b62000473565b9050919050565b6000819050919050565b620004c48362000487565b620004dc620004d382620004af565b8484546200041d565b825550505050565b600090565b620004f3620004e4565b62000500818484620004b9565b505050565b5b8181101562000528576200051c600082620004e9565b60018101905062000506565b5050565b601f82111562000577576200054181620003eb565b6200054c8462000400565b810160208510156200055c578190505b620005746200056b8562000400565b83018262000505565b50505b505050565b600082821c905092915050565b60006200059c600019846008026200057c565b1980831691505092915050565b6000620005b7838362000589565b9150826002028217905092915050565b620005d2826200037c565b67ffffffffffffffff811115620005ee57620005ed62000193565b5b620005fa8254620003b6565b620006078282856200052c565b600060209050601f8311600181146200063f57600084156200062a578287015190505b620006368582620005a9565b865550620006a6565b601f1984166200064f86620003eb565b60005b82811015620006795784890151825560018201915060208501945060208101905062000652565b8683101562000699578489015162000695601f89168262000589565b8355505b6001600288020188555050505b505050505050565b612f2f80620006be6000396000f3fe608060405234801561001057600080fd5b50600436106102115760003560e01c80638b195f9d11610125578063d2e80494116100ad578063e32a748f1161007c578063e32a748f14610628578063e43252d714610646578063e5272c4b14610662578063eff852411461066c578063f2fde38b1461068857610211565b8063d2e8049414610590578063db556e3d146105ac578063dd62ed3e146105c8578063e2d3f423146105f857610211565b8063a9059cbb116100f4578063a9059cbb146104d8578063a9c1f2f114610508578063af2214e714610526578063b6334aee14610556578063b6dfcac91461057457610211565b80638b195f9d146104505780638da5cb5b1461046c57806395d89b411461048a578063a457c2d7146104a857610211565b8063313ce567116101a8578063715018a611610177578063715018a6146103d45780637d26f32d146103de5780637ffdf53e146103fa57806388fa4aea146104185780638ab1d6811461043457610211565b8063313ce5671461033857806332cb6b0c14610356578063395093511461037457806370a08231146103a457610211565b80631d3a4ef0116101e45780631d3a4ef0146102b257806323b872dd146102d0578063298ff14b146103005780632ba544801461031c57610211565b806306c933d81461021657806306fdde0314610246578063095ea7b31461026457806318160ddd14610294575b600080fd5b610230600480360381019061022b9190611fe6565b6106a4565b60405161023d919061202e565b60405180910390f35b61024e6106c4565b60405161025b91906120d9565b60405180910390f35b61027e60048036038101906102799190612131565b610756565b60405161028b919061202e565b60405180910390f35b61029c610779565b6040516102a99190612180565b60405180910390f35b6102ba610783565b6040516102c791906121aa565b60405180910390f35b6102ea60048036038101906102e591906121c5565b6107a9565b6040516102f7919061202e565b60405180910390f35b61031a60048036038101906103159190612218565b61085d565b005b61033660048036038101906103319190611fe6565b610a70565b005b610340610acb565b60405161034d9190612261565b60405180910390f35b61035e610ad4565b60405161036b9190612180565b60405180910390f35b61038e60048036038101906103899190612131565b610add565b60405161039b919061202e565b60405180910390f35b6103be60048036038101906103b99190611fe6565b610b14565b6040516103cb9190612180565b60405180910390f35b6103dc610b5c565b005b6103f860048036038101906103f39190612131565b610b70565b005b610402610d20565b60405161040f9190612180565b60405180910390f35b610432600480360381019061042d9190612218565b610d26565b005b61044e60048036038101906104499190611fe6565b610e31565b005b61046a60048036038101906104659190611fe6565b610e94565b005b610474610ee0565b60405161048191906121aa565b60405180910390f35b610492610f0a565b60405161049f91906120d9565b60405180910390f35b6104c260048036038101906104bd9190612131565b610f9c565b6040516104cf919061202e565b60405180910390f35b6104f260048036038101906104ed9190612131565b611013565b6040516104ff919061202e565b60405180910390f35b6105106110c5565b60405161051d9190612180565b60405180910390f35b610540600480360381019061053b9190611fe6565b6110cb565b60405161054d919061202e565b60405180910390f35b61055e6110eb565b60405161056b9190612180565b60405180910390f35b61058e60048036038101906105899190612131565b6110f1565b005b6105aa60048036038101906105a59190612218565b6111b4565b005b6105c660048036038101906105c19190611fe6565b6111c6565b005b6105e260048036038101906105dd919061227c565b611202565b6040516105ef9190612180565b60405180910390f35b610612600480360381019061060d9190611fe6565b611289565b60405161061f9190612180565b60405180910390f35b6106306112a7565b60405161063d9190612180565b60405180910390f35b610660600480360381019061065b9190611fe6565b6112ad565b005b61066a611308565b005b61068660048036038101906106819190611fe6565b6113b0565b005b6106a2600480360381019061069d9190611fe6565b611413565b005b60066020528060005260406000206000915054906101000a900460ff1681565b6060600380546106d3906122eb565b80601f01602080910402602001604051908101604052809291908181526020018280546106ff906122eb565b801561074c5780601f106107215761010080835404028352916020019161074c565b820191906000526020600020905b81548152906001019060200180831161072f57829003601f168201915b5050505050905090565b600080610761611496565b905061076e81858561149e565b600191505092915050565b6000600254905090565b600a60009054906101000a900473ffffffffffffffffffffffffffffffffffffffff1681565b6000600660003373ffffffffffffffffffffffffffffffffffffffff1673ffffffffffffffffffffffffffffffffffffffff16815260200190815260200160002060009054906101000a900460ff16610837576040517f08c379a000000000000000000000000000000000000000000000000000000000815260040161082e9061238e565b60405180910390fd5b61084084611667565b61084983611667565b6108548484846117be565b90509392505050565b600760003373ffffffffffffffffffffffffffffffffffffffff1673ffffffffffffffffffffffffffffffffffffffff16815260200190815260200160002060009054906101000a900460ff166108e9576040517f08c379a00000000000000000000000000000000000000000000000000000000081526004016108e0906123fa565b60405180910390fd5b600760003373ffffffffffffffffffffffffffffffffffffffff1673ffffffffffffffffffffffffffffffffffffffff16815260200190815260200160002060009054906101000a900460ff16610975576040517f08c379a000000000000000000000000000000000000000000000000000000000815260040161096c9061248c565b60405180910390fd5b600081116109b8576040517f08c379a00000000000000000000000000000000000000000000000000000000081526004016109af906124f8565b60405180910390fd5b6109c133610b14565b811115610a03576040517f08c379a00000000000000000000000000000000000000000000000000000000081526004016109fa9061258a565b60405180910390fd5b80600b6000828254610a1591906125d9565b92505081905550610a2633826117ed565b42600860003373ffffffffffffffffffffffffffffffffffffffff1673ffffffffffffffffffffffffffffffffffffffff1681526020019081526020016000206000018190555050565b6001600760008373ffffffffffffffffffffffffffffffffffffffff1673ffffffffffffffffffffffffffffffffffffffff16815260200190815260200160002060006101000a81548160ff02191690831515021790555050565b60006012905090565b6402540be40081565b600080610ae8611496565b9050610b09818585610afa8589611202565b610b0491906125d9565b61149e565b600191505092915050565b60008060008373ffffffffffffffffffffffffffffffffffffffff1673ffffffffffffffffffffffffffffffffffffffff168152602001908152602001600020549050919050565b610b646119ba565b610b6e6000611a38565b565b610b78610ee0565b73ffffffffffffffffffffffffffffffffffffffff163373ffffffffffffffffffffffffffffffffffffffff161480610bfa5750600660003373ffffffffffffffffffffffffffffffffffffffff1673ffffffffffffffffffffffffffffffffffffffff16815260200190815260200160002060009054906101000a900460ff165b610c39576040517f08c379a0000000000000000000000000000000000000000000000000000000008152600401610c30906123fa565b60405180910390fd5b600073ffffffffffffffffffffffffffffffffffffffff168273ffffffffffffffffffffffffffffffffffffffff1603610ca8576040517f08c379a0000000000000000000000000000000000000000000000000000000008152600401610c9f90612659565b60405180910390fd5b610cd5600a60009054906101000a900473ffffffffffffffffffffffffffffffffffffffff168383611afe565b42600860008473ffffffffffffffffffffffffffffffffffffffff1673ffffffffffffffffffffffffffffffffffffffff168152602001908152602001600020600001819055505050565b60095481565b610d2e6119ba565b600073ffffffffffffffffffffffffffffffffffffffff16600a60009054906101000a900473ffffffffffffffffffffffffffffffffffffffff1673ffffffffffffffffffffffffffffffffffffffff1603610dbf576040517f08c379a0000000000000000000000000000000000000000000000000000000008152600401610db6906126c5565b60405180910390fd5b60008111610e02576040517f08c379a0000000000000000000000000000000000000000000000000000000008152600401610df990612731565b60405180910390fd5b610e2e600a60009054906101000a900473ffffffffffffffffffffffffffffffffffffffff1682611d74565b50565b610e396119ba565b6000600660008373ffffffffffffffffffffffffffffffffffffffff1673ffffffffffffffffffffffffffffffffffffffff16815260200190815260200160002060006101000a81548160ff02191690831515021790555050565b610e9c6119ba565b80600a60006101000a81548173ffffffffffffffffffffffffffffffffffffffff021916908373ffffffffffffffffffffffffffffffffffffffff16021790555050565b6000600560009054906101000a900473ffffffffffffffffffffffffffffffffffffffff16905090565b606060048054610f19906122eb565b80601f0160208091040260200160405190810160405280929190818152602001828054610f45906122eb565b8015610f925780601f10610f6757610100808354040283529160200191610f92565b820191906000526020600020905b815481529060010190602001808311610f7557829003601f168201915b5050505050905090565b600080610fa7611496565b90506000610fb58286611202565b905083811015610ffa576040517f08c379a0000000000000000000000000000000000000000000000000000000008152600401610ff1906127c3565b60405180910390fd5b611007828686840361149e565b60019250505092915050565b6000600660003373ffffffffffffffffffffffffffffffffffffffff1673ffffffffffffffffffffffffffffffffffffffff16815260200190815260200160002060009054906101000a900460ff166110a1576040517f08c379a00000000000000000000000000000000000000000000000000000000081526004016110989061238e565b60405180910390fd5b6110aa33611667565b6110b383611667565b6110bd8383611eca565b905092915050565b600d5481565b60076020528060005260406000206000915054906101000a900460ff1681565b600c5481565b6110f96119ba565b6000811161113c576040517f08c379a000000000000000000000000000000000000000000000000000000000815260040161113390612731565b60405180910390fd5b611169600a60009054906101000a900473ffffffffffffffffffffffffffffffffffffffff168383611afe565b42600860008473ffffffffffffffffffffffffffffffffffffffff1673ffffffffffffffffffffffffffffffffffffffff168152602001908152602001600020600001819055505050565b6111bc6119ba565b8060098190555050565b6111ce6119ba565b60006111d982610b14565b905080600b60008282546111ed91906125d9565b925050819055506111fe82826117ed565b5050565b6000600160008473ffffffffffffffffffffffffffffffffffffffff1673ffffffffffffffffffffffffffffffffffffffff16815260200190815260200160002060008373ffffffffffffffffffffffffffffffffffffffff1673ffffffffffffffffffffffffffffffffffffffff16815260200190815260200160002054905092915050565b60086020528060005260406000206000915090508060000154905081565b600b5481565b6001600660008373ffffffffffffffffffffffffffffffffffffffff1673ffffffffffffffffffffffffffffffffffffffff16815260200190815260200160002060006101000a81548160ff02191690831515021790555050565b6113106119ba565b6000600b5490506000811161135a576040517f08c379a00000000000000000000000000000000000000000000000000000000081526004016113519061282f565b60405180910390fd5b6402540be40081611369610779565b61137391906125d9565b116113ad576113a4600a60009054906101000a900473ffffffffffffffffffffffffffffffffffffffff1682611d74565b6000600b819055505b50565b6113b86119ba565b6000600760008373ffffffffffffffffffffffffffffffffffffffff1673ffffffffffffffffffffffffffffffffffffffff16815260200190815260200160002060006101000a81548160ff02191690831515021790555050565b61141b6119ba565b600073ffffffffffffffffffffffffffffffffffffffff168173ffffffffffffffffffffffffffffffffffffffff160361148a576040517f08c379a0000000000000000000000000000000000000000000000000000000008152600401611481906128c1565b60405180910390fd5b61149381611a38565b50565b600033905090565b600073ffffffffffffffffffffffffffffffffffffffff168373ffffffffffffffffffffffffffffffffffffffff160361150d576040517f08c379a000000000000000000000000000000000000000000000000000000000815260040161150490612953565b60405180910390fd5b600073ffffffffffffffffffffffffffffffffffffffff168273ffffffffffffffffffffffffffffffffffffffff160361157c576040517f08c379a0000000000000000000000000000000000000000000000000000000008152600401611573906129e5565b60405180910390fd5b80600160008573ffffffffffffffffffffffffffffffffffffffff1673ffffffffffffffffffffffffffffffffffffffff16815260200190815260200160002060008473ffffffffffffffffffffffffffffffffffffffff1673ffffffffffffffffffffffffffffffffffffffff168152602001908152602001600020819055508173ffffffffffffffffffffffffffffffffffffffff168373ffffffffffffffffffffffffffffffffffffffff167f8c5be1e5ebec7d5bd14f71427d1e84f3dd0314c0f7b2291e5b200ac8c7c3b9258360405161165a9190612180565b60405180910390a3505050565b600760008273ffffffffffffffffffffffffffffffffffffffff1673ffffffffffffffffffffffffffffffffffffffff16815260200190815260200160002060009054906101000a900460ff16801561170257506000600860008373ffffffffffffffffffffffffffffffffffffffff1673ffffffffffffffffffffffffffffffffffffffff16815260200190815260200160002060000154115b156117bb576000600c546103e8600860008573ffffffffffffffffffffffffffffffffffffffff1673ffffffffffffffffffffffffffffffffffffffff168152602001908152602001600020600001544261175d9190612a05565b6117679190612a39565b6117719190612aaa565b90506000816064600d5461178486610b14565b61178e9190612a39565b6117989190612aaa565b6117a29190612a39565b905060008111156117b8576117b783826117ed565b5b50505b50565b6000806117c9611496565b90506117d6858285611eed565b6117e1858585611afe565b60019150509392505050565b600073ffffffffffffffffffffffffffffffffffffffff168273ffffffffffffffffffffffffffffffffffffffff160361185c576040517f08c379a000000000000000000000000000000000000000000000000000000000815260040161185390612b4d565b60405180910390fd5b61186882600083611f79565b60008060008473ffffffffffffffffffffffffffffffffffffffff1673ffffffffffffffffffffffffffffffffffffffff168152602001908152602001600020549050818110156118ee576040517f08c379a00000000000000000000000000000000000000000000000000000000081526004016118e590612bdf565b60405180910390fd5b8181036000808573ffffffffffffffffffffffffffffffffffffffff1673ffffffffffffffffffffffffffffffffffffffff1681526020019081526020016000208190555081600260008282540392505081905550600073ffffffffffffffffffffffffffffffffffffffff168373ffffffffffffffffffffffffffffffffffffffff167fddf252ad1be2c89b69c2b068fc378daa952ba7f163c4a11628f55a4df523b3ef846040516119a19190612180565b60405180910390a36119b583600084611f7e565b505050565b6119c2611496565b73ffffffffffffffffffffffffffffffffffffffff166119e0610ee0565b73ffffffffffffffffffffffffffffffffffffffff1614611a36576040517f08c379a0000000000000000000000000000000000000000000000000000000008152600401611a2d90612c4b565b60405180910390fd5b565b6000600560009054906101000a900473ffffffffffffffffffffffffffffffffffffffff16905081600560006101000a81548173ffffffffffffffffffffffffffffffffffffffff021916908373ffffffffffffffffffffffffffffffffffffffff1602179055508173ffffffffffffffffffffffffffffffffffffffff168173ffffffffffffffffffffffffffffffffffffffff167f8be0079c531659141344cd1fd0a4f28419497f9722a3daafe3b4186f6b6457e060405160405180910390a35050565b600073ffffffffffffffffffffffffffffffffffffffff168373ffffffffffffffffffffffffffffffffffffffff1603611b6d576040517f08c379a0000000000000000000000000000000000000000000000000000000008152600401611b6490612cdd565b60405180910390fd5b600073ffffffffffffffffffffffffffffffffffffffff168273ffffffffffffffffffffffffffffffffffffffff1603611bdc576040517f08c379a0000000000000000000000000000000000000000000000000000000008152600401611bd390612d6f565b60405180910390fd5b611be7838383611f79565b60008060008573ffffffffffffffffffffffffffffffffffffffff1673ffffffffffffffffffffffffffffffffffffffff16815260200190815260200160002054905081811015611c6d576040517f08c379a0000000000000000000000000000000000000000000000000000000008152600401611c6490612e01565b60405180910390fd5b8181036000808673ffffffffffffffffffffffffffffffffffffffff1673ffffffffffffffffffffffffffffffffffffffff16815260200190815260200160002081905550816000808573ffffffffffffffffffffffffffffffffffffffff1673ffffffffffffffffffffffffffffffffffffffff168152602001908152602001600020600082825401925050819055508273ffffffffffffffffffffffffffffffffffffffff168473ffffffffffffffffffffffffffffffffffffffff167fddf252ad1be2c89b69c2b068fc378daa952ba7f163c4a11628f55a4df523b3ef84604051611d5b9190612180565b60405180910390a3611d6e848484611f7e565b50505050565b600073ffffffffffffffffffffffffffffffffffffffff168273ffffffffffffffffffffffffffffffffffffffff1603611de3576040517f08c379a0000000000000000000000000000000000000000000000000000000008152600401611dda90612e6d565b60405180910390fd5b611def60008383611f79565b8060026000828254611e0191906125d9565b92505081905550806000808473ffffffffffffffffffffffffffffffffffffffff1673ffffffffffffffffffffffffffffffffffffffff168152602001908152602001600020600082825401925050819055508173ffffffffffffffffffffffffffffffffffffffff16600073ffffffffffffffffffffffffffffffffffffffff167fddf252ad1be2c89b69c2b068fc378daa952ba7f163c4a11628f55a4df523b3ef83604051611eb29190612180565b60405180910390a3611ec660008383611f7e565b5050565b600080611ed5611496565b9050611ee2818585611afe565b600191505092915050565b6000611ef98484611202565b90507fffffffffffffffffffffffffffffffffffffffffffffffffffffffffffffffff8114611f735781811015611f65576040517f08c379a0000000000000000000000000000000000000000000000000000000008152600401611f5c90612ed9565b60405180910390fd5b611f72848484840361149e565b5b50505050565b505050565b505050565b600080fd5b600073ffffffffffffffffffffffffffffffffffffffff82169050919050565b6000611fb382611f88565b9050919050565b611fc381611fa8565b8114611fce57600080fd5b50565b600081359050611fe081611fba565b92915050565b600060208284031215611ffc57611ffb611f83565b5b600061200a84828501611fd1565b91505092915050565b60008115159050919050565b61202881612013565b82525050565b6000602082019050612043600083018461201f565b92915050565b600081519050919050565b600082825260208201905092915050565b60005b83811015612083578082015181840152602081019050612068565b60008484015250505050565b6000601f19601f8301169050919050565b60006120ab82612049565b6120b58185612054565b93506120c5818560208601612065565b6120ce8161208f565b840191505092915050565b600060208201905081810360008301526120f381846120a0565b905092915050565b6000819050919050565b61210e816120fb565b811461211957600080fd5b50565b60008135905061212b81612105565b92915050565b6000806040838503121561214857612147611f83565b5b600061215685828601611fd1565b92505060206121678582860161211c565b9150509250929050565b61217a816120fb565b82525050565b60006020820190506121956000830184612171565b92915050565b6121a481611fa8565b82525050565b60006020820190506121bf600083018461219b565b92915050565b6000806000606084860312156121de576121dd611f83565b5b60006121ec86828701611fd1565b93505060206121fd86828701611fd1565b925050604061220e8682870161211c565b9150509250925092565b60006020828403121561222e5761222d611f83565b5b600061223c8482850161211c565b91505092915050565b600060ff82169050919050565b61225b81612245565b82525050565b60006020820190506122766000830184612252565b92915050565b6000806040838503121561229357612292611f83565b5b60006122a185828601611fd1565b92505060206122b285828601611fd1565b9150509250929050565b7f4e487b7100000000000000000000000000000000000000000000000000000000600052602260045260246000fd5b6000600282049050600182168061230357607f821691505b602082108103612316576123156122bc565b5b50919050565b7f53656e646572206973206e6f7420616c6c6f77656420746f207472616e73666560008201527f7200000000000000000000000000000000000000000000000000000000000000602082015250565b6000612378602183612054565b91506123838261231c565b604082019050919050565b600060208201905081810360008301526123a78161236b565b9050919050565b7f53656e646572206973206e6f7420616c6c6f7765640000000000000000000000600082015250565b60006123e4601583612054565b91506123ef826123ae565b602082019050919050565b60006020820190508181036000830152612413816123d7565b9050919050565b7f4f6e6c792077686974656c6973746564206164647265737365732063616e207260008201527f656465656d20646973636f756e74730000000000000000000000000000000000602082015250565b6000612476602f83612054565b91506124818261241a565b604082019050919050565b600060208201905081810360008301526124a581612469565b9050919050565b7f496e76616c696420746f6b656e20616d6f756e74000000000000000000000000600082015250565b60006124e2601483612054565b91506124ed826124ac565b602082019050919050565b60006020820190508181036000830152612511816124d5565b9050919050565b7f4578636565647320746f6b656e7320617661696c61626c6520696e2073656e6460008201527f657227732077616c6c6574000000000000000000000000000000000000000000602082015250565b6000612574602b83612054565b915061257f82612518565b604082019050919050565b600060208201905081810360008301526125a381612567565b9050919050565b7f4e487b7100000000000000000000000000000000000000000000000000000000600052601160045260246000fd5b60006125e4826120fb565b91506125ef836120fb565b9250828201905080821115612607576126066125aa565b5b92915050565b7f496e76616c696420726563697069656e74206164647265737300000000000000600082015250565b6000612643601983612054565b915061264e8261260d565b602082019050919050565b6000602082019050818103600083015261267281612636565b9050919050565b7f5368617265642077616c6c6574206e6f74207365740000000000000000000000600082015250565b60006126af601583612054565b91506126ba82612679565b602082019050919050565b600060208201905081810360008301526126de816126a2565b9050919050565b7f416d6f756e74206d7573742062652067726561746572207468616e207a65726f600082015250565b600061271b602083612054565b9150612726826126e5565b602082019050919050565b6000602082019050818103600083015261274a8161270e565b9050919050565b7f45524332303a2064656372656173656420616c6c6f77616e63652062656c6f7760008201527f207a65726f000000000000000000000000000000000000000000000000000000602082015250565b60006127ad602583612054565b91506127b882612751565b604082019050919050565b600060208201905081810360008301526127dc816127a0565b9050919050565b7f4e6f206275726e656420746f6b656e7320746f206d696e740000000000000000600082015250565b6000612819601883612054565b9150612824826127e3565b602082019050919050565b600060208201905081810360008301526128488161280c565b9050919050565b7f4f776e61626c653a206e6577206f776e657220697320746865207a65726f206160008201527f6464726573730000000000000000000000000000000000000000000000000000602082015250565b60006128ab602683612054565b91506128b68261284f565b604082019050919050565b600060208201905081810360008301526128da8161289e565b9050919050565b7f45524332303a20617070726f76652066726f6d20746865207a65726f2061646460008201527f7265737300000000000000000000000000000000000000000000000000000000602082015250565b600061293d602483612054565b9150612948826128e1565b604082019050919050565b6000602082019050818103600083015261296c81612930565b9050919050565b7f45524332303a20617070726f766520746f20746865207a65726f20616464726560008201527f7373000000000000000000000000000000000000000000000000000000000000602082015250565b60006129cf602283612054565b91506129da82612973565b604082019050919050565b600060208201905081810360008301526129fe816129c2565b9050919050565b6000612a10826120fb565b9150612a1b836120fb565b9250828203905081811115612a3357612a326125aa565b5b92915050565b6000612a44826120fb565b9150612a4f836120fb565b9250828202612a5d816120fb565b91508282048414831517612a7457612a736125aa565b5b5092915050565b7f4e487b7100000000000000000000000000000000000000000000000000000000600052601260045260246000fd5b6000612ab5826120fb565b9150612ac0836120fb565b925082612ad057612acf612a7b565b5b828204905092915050565b7f45524332303a206275726e2066726f6d20746865207a65726f2061646472657360008201527f7300000000000000000000000000000000000000000000000000000000000000602082015250565b6000612b37602183612054565b9150612b4282612adb565b604082019050919050565b60006020820190508181036000830152612b6681612b2a565b9050919050565b7f45524332303a206275726e20616d6f756e7420657863656564732062616c616e60008201527f6365000000000000000000000000000000000000000000000000000000000000602082015250565b6000612bc9602283612054565b9150612bd482612b6d565b604082019050919050565b60006020820190508181036000830152612bf881612bbc565b9050919050565b7f4f776e61626c653a2063616c6c6572206973206e6f7420746865206f776e6572600082015250565b6000612c35602083612054565b9150612c4082612bff565b602082019050919050565b60006020820190508181036000830152612c6481612c28565b9050919050565b7f45524332303a207472616e736665722066726f6d20746865207a65726f20616460008201527f6472657373000000000000000000000000000000000000000000000000000000602082015250565b6000612cc7602583612054565b9150612cd282612c6b565b604082019050919050565b60006020820190508181036000830152612cf681612cba565b9050919050565b7f45524332303a207472616e7366657220746f20746865207a65726f206164647260008201527f6573730000000000000000000000000000000000000000000000000000000000602082015250565b6000612d59602383612054565b9150612d6482612cfd565b604082019050919050565b60006020820190508181036000830152612d8881612d4c565b9050919050565b7f45524332303a207472616e7366657220616d6f756e742065786365656473206260008201527f616c616e63650000000000000000000000000000000000000000000000000000602082015250565b6000612deb602683612054565b9150612df682612d8f565b604082019050919050565b60006020820190508181036000830152612e1a81612dde565b9050919050565b7f45524332303a206d696e7420746f20746865207a65726f206164647265737300600082015250565b6000612e57601f83612054565b9150612e6282612e21565b602082019050919050565b60006020820190508181036000830152612e8681612e4a565b9050919050565b7f45524332303a20696e73756666696369656e7420616c6c6f77616e6365000000600082015250565b6000612ec3601d83612054565b9150612ece82612e8d565b602082019050919050565b60006020820190508181036000830152612ef281612eb6565b905091905056fea2646970667358221220cbcf3fca70b393767c0d60b7b1b061365d85be2ddb596f377ea5c89745805f2564736f6c63430008130033",
  "linkReferences": {},
  "deployedLinkReferences": {}
}